:020000020000FC
:10000000509A519A529A539A549A559A569A579A84
:10001000209A219A259A0F9301E00BB92898299AE2
:100020002F938F939F9325E08EE39CE90197F1F73F
:100030002A95D1F700009F918F912F91299800E088
:100040000BB90F910F9308E30BB92898299A2F93B6
:100050008F939F9325E08EE39CE90197F1F72A9512
:10006000D1F700009F918F912F91299800E00BB953
:100070000F910F930CE00BB92898299A2F938F9327
:100080009F9325E08EE39CE90197F1F72A95D1F73C
:1000900000009F918F912F91299800E00BB90F914B
:1000A0002D9A0F9301E00BB92898299A2F938F93DB
:1000B0009F9325E08EE39CE90197F1F72A95D1F70C
:1000C00000009F918F912F91299800E00BB90F911B
:1000D0000F9302E50BB9289A299A2F938F939F9338
:1000E00023E08EE39CE90197F1F72A95D1F7000010
:1000F0009F918F912F91299800E00BB90F910F9349
:1001000005E40BB9289A299A2F938F939F9323E0A4
:100110008EE39CE90197F1F72A95D1F700009F91B2
:100120008F912F91299800E00BB90F910F9301E463
:100130000BB9289A299A2F938F939F9323E08EE3EC
:100140009CE90197F1F72A95D1F700009F918F91D3
:100150002F91299800E00BB90F910F9304E40BB98C
:10016000289A299A2F938F939F9323E08EE39CE9FB
:100170000197F1F72A95D1F700009F918F912F9168
:10018000299800E00BB90F910F9309E40BB9289A55
:10019000299A2F938F939F9323E08EE39CE90197F5
:1001A000F1F72A95D1F700009F918F912F9129980F
:1001B00000E00BB90F910F930EE40BB9289A299A1E
:1001C0002F938F939F9323E08EE39CE90197F1F7A0
:1001D0002A95D1F700009F918F912F91299800E0E7
:1001E0000BB90F910F9307E40BB9289A299A2F9313
:1001F0008F939F9323E08EE39CE90197F1F72A9573
:10020000D1F700009F918F912F91299800E00BB9B1
:100210000F910F930AE30BB9289A299A2F938F9382
:100220009F9323E08EE39CE90197F1F72A95D1F79C
:1002300000009F918F912F91299800E00BB90F91A9
:100240000BE7043600F014E62F93FF1829E0001F97
:100250002A9509F408C0FF1CF11A18F4F10E8894CD
:10026000F6CF0894F4CF2F9140E3040F0F93002FA3
:100270000BB9289A299A2F938F939F9323E08EE3AB
:100280009CE90197F1F72A95D1F700009F918F9192
:100290002F91299800E00BB90F910F2D1AE02F93A1
:1002A000FF1829E0001F2A9509F408C0FF1CF11A65
:1002B00018F4F10E8894F6CF0894F4CF2F9140E310
:1002C000040F0F93002F0BB9289A299A2F938F931D
:1002D0009F9323E08EE39CE90197F1F72A95D1F7EC
:1002E00000009F918F912F91299800E00BB90F91F9
:1002F00040E3F40E0F930F2D0BB9289A299A2F93F0
:100300008F939F9323E08EE39CE90197F1F72A9561
:10031000D1F700009F918F912F91299800E00BB9A0
:100320000F912F938F939F9324E68EE39CE901977F
:10033000F1F72A95D1F700009F918F912F91B1CEBF
:00000001FF
