:020000020000FC
:10000000509A519A529A539A549A559A569A579A84
:10001000209A219A259A0F9301E00BB92898299AE2
:100020002F938F939F9325E08EE39CE90197F1F73F
:100030002A95D1F700009F918F912F91299800E088
:100040000BB90F910F9308E30BB92898299A2F93B6
:100050008F939F9325E08EE39CE90197F1F72A9512
:10006000D1F700009F918F912F91299800E00BB953
:100070000F910F930CE00BB92898299A2F938F9327
:100080009F9325E08EE39CE90197F1F72A95D1F73C
:1000900000009F918F912F91299800E00BB90F914B
:1000A0002D9A0F9301E00BB92898299A2F938F93DB
:1000B0009F9325E08EE39CE90197F1F72A95D1F70C
:1000C00000009F918F912F91299800E00BB90F911B
:1000D0000BE7013030F31AE02F93FF1829E0001FDF
:1000E0002A9509F408C0FF1CF11A18F4F10E88943F
:1000F000F6CF0894F4CF2F910E947F00D2CF40E337
:10010000F40E0F930F2D0BB9289A299A2F938F93E2
:100110009F9323E08EE39CE90197F1F72A95D1F7AD
:1001200000009F918F912F91299800E00BB90F91BA
:100130000F9303E10BB92898299A2F938F939F93DC
:1001400025E08EE39CE90197F1F72A95D1F70000AD
:100150009F918F912F91299800E00BB90F910E94E8
:02016000690034
:00000001FF
