:020000020000FC
:10000000259A2D9807EC00937A0000E600937C0077
:10001000409A579A569A559A549A209A219A289813
:100020000F9303E3B02FB07FBBB92998289A2F9381
:100030008F939F9323E08EE39CE90197F1F72A9534
:10004000D1F700009F918F912F9128982F938F9334
:100050009F9323E08EE39CE90197F1F72A95D1F76E
:1000600000009F918F912F91B02FB295B07FBBB9B7
:10007000289A2F938F939F9323E08EE39CE9019717
:10008000F1F72A95D1F700009F918F912F91289831
:100090002F938F939F9323E08EE39CE90197F1F7D1
:1000A0002A95D1F700009F918F912F910F912F9357
:1000B0008F939F9323E08EE39CE90197F1F72A95B4
:1000C000D1F700009F918F912F910F9302E3B02FF2
:1000D000B07FBBB92998289A2F938F939F9323E0E1
:1000E0008EE39CE90197F1F72A95D1F700009F91E3
:1000F0008F912F9128982F938F939F9323E08EE3D6
:100100009CE90197F1F72A95D1F700009F918F9113
:100110002F91B02FB295B07FBBB9289A2F938F93B0
:100120009F9323E08EE39CE90197F1F72A95D1F79D
:1001300000009F918F912F9128982F938F939F93D9
:1001400023E08EE39CE90197F1F72A95D1F70000AF
:100150009F918F912F910F912F938F939F9323E0D6
:100160008EE39CE90197F1F72A95D1F700009F9162
:100170008F912F910F9308E2B02FB07FBBB92998D0
:10018000289A2F938F939F9323E08EE39CE9019706
:10019000F1F72A95D1F700009F918F912F91289820
:1001A0002F938F939F9323E08EE39CE90197F1F7C0
:1001B0002A95D1F700009F918F912F91B02FB29582
:1001C000B07FBBB9289A2F938F939F9323E08EE340
:1001D0009CE90197F1F72A95D1F700009F918F9143
:1001E0002F9128982F938F939F9323E08EE39CE980
:1001F0000197F1F72A95D1F700009F918F912F91E8
:100200000F912F938F939F9323E08EE39CE90197A7
:10021000F1F72A95D1F700009F918F912F910F93BD
:100220000CE0B02FB07FBBB92998289A2F938F93F9
:100230009F9323E08EE39CE90197F1F72A95D1F78C
:1002400000009F918F912F9128982F938F939F93C8
:1002500023E08EE39CE90197F1F72A95D1F700009E
:100260009F918F912F91B02FB295B07FBBB9289AF3
:100270002F938F939F9323E08EE39CE90197F1F7EF
:100280002A95D1F700009F918F912F9128982F9355
:100290008F939F9323E08EE39CE90197F1F72A95D2
:1002A000D1F700009F918F912F910F910F9301E053
:1002B000B02FB07FBBB92998289A2F938F939F9323
:1002C00023E08EE39CE90197F1F72A95D1F700002E
:1002D0009F918F912F9128982F938F939F9323E035
:1002E0008EE39CE90197F1F72A95D1F700009F91E1
:1002F0008F912F91B02FB295B07FBBB9289A2F93D1
:100300008F939F9323E08EE39CE90197F1F72A9561
:10031000D1F700009F918F912F9128982F938F9361
:100320009F9323E08EE39CE90197F1F72A95D1F79B
:1003300000009F918F912F910F912F938F939F93F7
:1003400023E08EE39CE90197F1F72A95D1F70000AD
:100350009F918F912F910F9306E0B02FB07FBBB983
:100360002998289A2F938F939F9323E08EE39CE9FB
:100370000197F1F72A95D1F700009F918F912F9166
:1003800028982F938F939F9323E08EE39CE9019706
:10039000F1F72A95D1F700009F918F912F91B02FFF
:1003A000B295B07FBBB9289A2F938F939F9323E088
:1003B0008EE39CE90197F1F72A95D1F700009F9110
:1003C0008F912F9128982F938F939F9323E08EE303
:1003D0009CE90197F1F72A95D1F700009F918F9141
:1003E0002F910F910F9301E0B02FB07FBBB92998E7
:1003F000289A2F938F939F9323E08EE39CE9019794
:10040000F1F72A95D1F700009F918F912F912898AD
:100410002F938F939F9323E08EE39CE90197F1F74D
:100420002A95D1F700009F918F912F91B02FB2950F
:10043000B07FBBB9289A2F938F939F9323E08EE3CD
:100440009CE90197F1F72A95D1F700009F918F91D0
:100450002F9128982F938F939F9323E08EE39CE90D
:100460000197F1F72A95D1F700009F918F912F9175
:100470000F9100917A00006400937A0000917A0055
:1004800006FDFCCF0091780010917900183C10F423
:100490002D9802C02D9A012F0F9302E5B02FB07F47
:1004A000BBB9299A289A2F938F939F9323E08EE3C9
:1004B0009CE90197F1F72A95D1F700009F918F9160
:1004C0002F9128982F938F939F9323E08EE39CE99D
:1004D0000197F1F72A95D1F700009F918F912F9105
:1004E000B02FB295B07FBBB9289A2F938F939F936B
:1004F00023E08EE39CE90197F1F72A95D1F70000FC
:100500009F918F912F9128982F938F939F9323E002
:100510008EE39CE90197F1F72A95D1F700009F91AE
:100520008F912F910F910F9305E4B02FB07FBBB93E
:10053000299A289A2F938F939F9323E08EE39CE927
:100540000197F1F72A95D1F700009F918F912F9194
:1005500028982F938F939F9323E08EE39CE9019734
:10056000F1F72A95D1F700009F918F912F91B02F2D
:10057000B295B07FBBB9289A2F938F939F9323E0B6
:100580008EE39CE90197F1F72A95D1F700009F913E
:100590008F912F9128982F938F939F9323E08EE331
:1005A0009CE90197F1F72A95D1F700009F918F916F
:1005B0002F910F910F9301E4B02FB07FBBB9299A0F
:1005C000289A2F938F939F9323E08EE39CE90197C2
:1005D000F1F72A95D1F700009F918F912F912898DC
:1005E0002F938F939F9323E08EE39CE90197F1F77C
:1005F0002A95D1F700009F918F912F91B02FB2953E
:10060000B07FBBB9289A2F938F939F9323E08EE3FB
:100610009CE90197F1F72A95D1F700009F918F91FE
:100620002F9128982F938F939F9323E08EE39CE93B
:100630000197F1F72A95D1F700009F918F912F91A3
:100640000F910F9304E4B02FB07FBBB9299A289A79
:100650002F938F939F9323E08EE39CE90197F1F70B
:100660002A95D1F700009F918F912F9128982F9371
:100670008F939F9323E08EE39CE90197F1F72A95EE
:10068000D1F700009F918F912F91B02FB295B07F3D
:10069000BBB9289A2F938F939F9323E08EE39CE915
:1006A0000197F1F72A95D1F700009F918F912F9133
:1006B00028982F938F939F9323E08EE39CE90197D3
:1006C000F1F72A95D1F700009F918F912F910F910B
:1006D0000F9309E4B02FB07FBBB9299A289A2F93C2
:1006E0008F939F9323E08EE39CE90197F1F72A957E
:1006F000D1F700009F918F912F9128982F938F937E
:100700009F9323E08EE39CE90197F1F72A95D1F7B7
:1007100000009F918F912F91B02FB295B07FBBB900
:10072000289A2F938F939F9323E08EE39CE9019760
:10073000F1F72A95D1F700009F918F912F9128987A
:100740002F938F939F9323E08EE39CE90197F1F71A
:100750002A95D1F700009F918F912F910F910F93C0
:100760000EE4B02FB07FBBB9299A289A2F938F93AC
:100770009F9323E08EE39CE90197F1F72A95D1F747
:1007800000009F918F912F9128982F938F939F9383
:1007900023E08EE39CE90197F1F72A95D1F7000059
:1007A0009F918F912F91B02FB295B07FBBB9289AAE
:1007B0002F938F939F9323E08EE39CE90197F1F7AA
:1007C0002A95D1F700009F918F912F9128982F9310
:1007D0008F939F9323E08EE39CE90197F1F72A958D
:1007E000D1F700009F918F912F910F910F9307E404
:1007F000B02FB07FBBB9299A289A2F938F939F93DC
:1008000023E08EE39CE90197F1F72A95D1F70000E8
:100810009F918F912F9128982F938F939F9323E0EF
:100820008EE39CE90197F1F72A95D1F700009F919B
:100830008F912F91B02FB295B07FBBB9289A2F938B
:100840008F939F9323E08EE39CE90197F1F72A951C
:10085000D1F700009F918F912F9128982F938F931C
:100860009F9323E08EE39CE90197F1F72A95D1F756
:1008700000009F918F912F910F910F930AE3B02F5A
:10088000B07FBBB9299A289A2F938F939F9323E027
:100890008EE39CE90197F1F72A95D1F700009F912B
:1008A0008F912F9128982F938F939F9323E08EE31E
:1008B0009CE90197F1F72A95D1F700009F918F915C
:1008C0002F91B02FB295B07FBBB9289A2F938F93F9
:1008D0009F9323E08EE39CE90197F1F72A95D1F7E6
:1008E00000009F918F912F9128982F938F939F9322
:1008F00023E08EE39CE90197F1F72A95D1F70000F8
:100900009F918F912F910F9114E62F93FF1829E05B
:10091000001F2A9509F408C0FF1CF11A18F4F10E03
:100920008894F6CF0894F4CF2F9140E3040F0F93EF
:10093000002FB02FB07FBBB9299A289A2F938F939D
:100940009F9323E08EE39CE90197F1F72A95D1F775
:1009500000009F918F912F9128982F938F939F93B1
:1009600023E08EE39CE90197F1F72A95D1F7000087
:100970009F918F912F91B02FB295B07FBBB9289ADC
:100980002F938F939F9323E08EE39CE90197F1F7D8
:100990002A95D1F700009F918F912F9128982F933E
:1009A0008F939F9323E08EE39CE90197F1F72A95BB
:1009B000D1F700009F918F912F910F910F2D1AE089
:1009C0002F93FF1829E0001F2A9509F408C0FF1C87
:1009D000F11A18F4F10E8894F6CF0894F4CF2F9101
:1009E00040E3040F0F93002FB02FB07FBBB9299ABB
:1009F000289A2F938F939F9323E08EE39CE901978E
:100A0000F1F72A95D1F700009F918F912F912898A7
:100A10002F938F939F9323E08EE39CE90197F1F747
:100A20002A95D1F700009F918F912F91B02FB29509
:100A3000B07FBBB9289A2F938F939F9323E08EE3C7
:100A40009CE90197F1F72A95D1F700009F918F91CA
:100A50002F9128982F938F939F9323E08EE39CE907
:100A60000197F1F72A95D1F700009F918F912F916F
:100A70000F9140E3F40E0F930F2DB02FB07FBBB951
:100A8000299A289A2F938F939F9323E08EE39CE9D2
:100A90000197F1F72A95D1F700009F918F912F913F
:100AA00028982F938F939F9323E08EE39CE90197DF
:100AB000F1F72A95D1F700009F918F912F91B02FD8
:100AC000B295B07FBBB9289A2F938F939F9323E061
:100AD0008EE39CE90197F1F72A95D1F700009F91E9
:100AE0008F912F9128982F938F939F9323E08EE3DC
:100AF0009CE90197F1F72A95D1F700009F918F911A
:100B00002F910F912F938F939F9324E68EE39CE96F
:100B10000197F1F72A95D1F700009F918F912F91BE
:020B200061CCA6
:00000001FF
